:100000000C942A000C9434000C9434000C943400AA
:100010000C9434000C9434000C9434000C94340090
:100020000C9434000C9434000C9434000C94340080
:100030000C9434000C9434000C9434000C94340070
:100040000C9434000C9434000C9434000C94340060
:100050000C94340011241FBECFE5D8E0DEBFCDBF25
:100060000E9436000C9449000C940000D09A81E064
:100070008ABB82E08BBB20E23EE441E0C999FECF1F
:10008000C99BFECFC9010197F1F78BB384278BBBC6
:06009000F5CFF894FFCF4C
:00000001FF
