:100000000C942A000C9434000C9434000C943400AA
:100010000C9434000C9434000C9434000C94340090
:100020000C9434000C9434000C9434000C94340080
:100030000C9434000C9434000C9434000C94340070
:100040000C9434000C9434000C9434000C94340060
:100050000C94340011241FBECFE5D8E0DEBFCDBF25
:100060000E9436000C945C000C9400008FE08ABB68
:1000700031E048EC50E038BB20E00DC0FA01319788
:10008000F1F70197D9F788B3880F88BB2F5F23302A
:1000900011F420E00EC084EC99E0F0CFFA01319722
:1000A000F1F70197D9F788B3869588BB2F5F233086
:0C00B00011F384EC99E0F2CFF894FFCF3C
:00000001FF
